:100000000C945D000C9485000C9485000C94850084
:100010000C9400070C9485000C9485000C948500CA
:100020000C9485000C9485000C9485000C9485003C
:100030000C9485000C9485000C9485000C9485002C
:100040000C94B6060C9485000C9484060C945E0601
:100050000C9485000C9485000C9485000C9485000C
:100060000C9485000C94850000000008000201003B
:100070000003040700000000000000000000000072
:10008000250028002B0000000000240027002A0083
:10009000040404040404040402020202020203032E
:1000A0000303030301020408102040800102040836
:1000B00010200102040810202B0711241FBECFEFCF
:1000C000D8E0DEBFCDBF22E0A4E9B1E001C01D92BF
:1000D000A93DB207E1F711E0A0E0B1E0EAE0F6E106
:1000E00002C005900D92A439B107D9F710E0CDE513
:1000F000D0E004C02197FE010E94F80ACC35D10758
:10010000C9F70E9483070C94030B0C94000090E045
:10011000FC01EC55FF4F2491FC01E057FF4F849107
:10012000882399F090E0880F991FFC01EA57FF4F50
:10013000A591B491FC01E458FF4F859194918FB73C
:10014000F894EC91E22BEC938FBF0895CF92DF925D
:10015000EF92FF920F931F93CF93DF936C017A017D
:100160008B01C0E0D0E0CE15DF0589F0D8016D919C
:100170008D01D601ED91FC910190F081E02DC60139
:100180000995892B11F47E0102C02196ECCFC7019D
:10019000DF91CF911F910F91FF90EF90DF90CF9063
:1001A0000895089580E090E00895FC01538D448DFA
:1001B000252F30E0842F90E0821B930B541710F012
:1001C000CF96089501970895FC01918D828D98171F
:1001D00061F0828DDF01A80FB11D5D968C91928D2B
:1001E0009F5F9F73928F90E008958FEF9FEF089528
:1001F000FC01918D828D981731F0828DE80FF11DF1
:10020000858D90E008958FEF9FEF0895FC01918D0B
:10021000228D892F90E0805C9F4F821B91098F7304
:100220009927089580ED91E00E94060121E0892B35
:1002300009F420E0822F0895FC01848DDF01A80FCE
:10024000B11DA35ABF4F2C91848D90E001968F73FE
:100250009927848FA689B7892C93A089B1898C911D
:1002600080648C93938D848D981306C00288F389E3
:10027000E02D80818F7D80830895EF92FF920F9310
:100280001F93CF93DF93EC0181E0888F9B8D8C8D42
:10029000981305C0E889F989808185FD24C0F62E70
:1002A0000B8D10E00F5F1F4F0F731127E02E8C8D09
:1002B000E8120CC00FB607FCFACFE889F9898081F3
:1002C00085FFF5CFCE010E941C01F1CF8B8DFE0181
:1002D000E80FF11DE35AFF4FF0820B8FEA89FB898B
:1002E0008081806207C0EE89FF896083E889F9898F
:1002F00080818064808381E090E0DF91CF911F91C5
:100300000F91FF90EF900895CF93DF93EC01888DCC
:100310008823C9F0EA89FB89808185FD05C0A88909
:10032000B9898C9186FD0FC00FB607FCF5CF80818F
:1003300085FFF2CFA889B9898C9185FFEDCFCE01D9
:100340000E941C01E7CFDF91CF91089580E090E0FB
:10035000892B29F00E94120181110C94000008954C
:1003600090E0FC01E859FF4F3491FC01EC55FF4F40
:100370002491FC01E057FF4FE491EE2309F43BC0C8
:10038000332339F1333091F038F43130A9F0323081
:1003900001F584B58F7D12C0373091F03830A1F06F
:1003A0003430B9F4809180008F7D03C0809180004B
:1003B0008F77809380000DC084B58F7784BD09C08E
:1003C0008091B0008F7703C08091B0008F7D8093C3
:1003D000B000F0E0EE0FFF1FE458FF4FA591B4917D
:1003E0008FB7F894EC91611103C020952E2301C0C2
:1003F0002E2B2C938FBF08953FB7F8948091BF01A7
:100400009091C001A091C101B091C20126B5A89BF5
:1004100005C02F3F19F00196A11DB11D3FBFBA2F96
:10042000A92F982F8827820F911DA11DB11DBC01F6
:10043000CD0143E0660F771F881F991F4A95D1F7BA
:1004400008952FB7F8946091BB017091BC01809121
:10045000BD019091BE012FBF08958F929F92AF92E0
:10046000BF92CF92DF92EF92FF926B017C010E94CC
:1004700021024B015C01C60ED71EE81EF91E0E9428
:100480002102681579058A059B0528F0C616D7064E
:10049000E806F906A0F7FF90EF90DF90CF90BF90AD
:1004A000AF909F908F9008950F931F93811123C059
:1004B0000E942102009193021091940220919502D2
:1004C00030919602DC01CB01801B910BA20BB30B88
:1004D00081329105A105B10570F441E250E060E080
:1004E00070E08A019B01081B190B2A0B3B0BC90109
:1004F000B8010E942D020E94210260939302709322
:100500009402809395029093960281E01F910F913F
:1005100008950F931F93CF93DF938C01EB01DC01C0
:100520001496ED91FC911597EE0FFF1FE00FF11F50
:1005300080819181DC01ED91FC910480F581E02DB9
:100540000995F8018481958197838683D583C48337
:10055000CC0FDD1FC00FD11F88819981DC01ED9187
:10056000FC910190F081E02DDF91CF911F910F91CF
:1005700009940895089508951092B1011092B00160
:1005800008951092A3011092A20108958EBD00005B
:100590000DB407FEFDCF8EB5089560E086E00E94A1
:1005A000B00161E086E00E94B00160E084E00E945A
:1005B000B00180E00E94C60280E00E94C60280E096
:1005C0000E94C60261E084E00C94B001DC01129646
:1005D000ED91FC9113978085918546960C94CD0200
:1005E000DC011296ED91FC911397808591854696DA
:1005F0000C94CD028F929F92AF92BF92CF92DF92D6
:10060000EF92FF920F931F93CF93DF93EC01EA8158
:10061000FB81008511858091A2019091A301009733
:1006200021F0899709F46AC088C080E990EDA3E0C1
:10063000B0E080939E0190939F01A093A001B0939E
:10064000A1010E94FC0160939A0170939B01809329
:100650009C0190939D0110929901109298011BC0EA
:100660000E94FC016C157D058E059F0508F069C090
:100670000E94FC0160939A0170939B0180939C01FE
:1006800090939D018091980190919901019690938A
:1006900099018093980180919801909199018E3FE2
:1006A0009105C8F660E084E00E94B001C09094011A
:1006B000D0909501E0909601F09097018C2D0E94CA
:1006C000C60280E00E94C60280E00E94C60261E08D
:1006D00084E00E94B0018FEFC81AD80AE80AF80A2D
:1006E000C0929401D0929501E0929601F092970108
:1006F00089E290E09093A3018093A2010E94FC0103
:10070000C0909A01D0909B01E0909C01F0909D01D7
:10071000DC01CB018C199D09AE09BF0980909E01B7
:1007200090909F01A090A001B090A101881599051B
:10073000AA05BB0508F09CCF93CF1092A30110929D
:10074000A201F8018389882399F08A819B81FC01A9
:1007500066817781DF91CF911F910F91FF90EF908C
:10076000DF90CF90BF90AF909F908F900C948902B4
:10077000DF91CF911F910F91FF90EF90DF90CF907D
:10078000BF90AF909F908F9008950E94FE0A6115D0
:10079000710579F0FB0101900020E9F73197AF0175
:1007A000461B570BDC01ED91FC910280F381E02D9B
:1007B000099480E090E008954F925F926F927F924B
:1007C000EF92FF920F931F93CF93DF93CDB7DEB7D6
:1007D000A1970FB6F894DEBF0FBECDBF7C01FA0122
:1007E000CB0119A2223008F42AE08E010F5D1F4FC1
:1007F000422E512C612C712CBF01A30192010E9449
:10080000D60AF901CA01015011096A3014F4605D79
:1008100001C0695CD8016C93232B242B252B61F735
:10082000B801C7010E94C703A1960FB6F894DEBFB6
:100830000FBECDBFDF91CF911F910F91FF90EF9031
:100840007F906F905F904F900895CF92DF92EF92DC
:10085000FF920F931F93CF93DF936B01770FEE08F7
:10086000FF08F7FE1FC0EC01E881F9810190F081DB
:10087000E02D6DE209958C0144275527BA014C19EA
:100880005D096E097F092AE0CE010E94DC03800F1A
:10089000911FDF91CF911F910F91FF90EF90DF900B
:1008A000CF9008952AE0B701A601DF91CF911F9163
:1008B0000F91FF90EF90DF90CF900C94DC030F939B
:1008C0001F93CF93DF93EC010E94C7038C0169E46F
:1008D00071E0CE010E94C703800F911FDF91CF917D
:1008E0001F910F91089566E271E08091D30290917B
:1008F000D4020C945F040C94C703BF92CF92DF9292
:10090000EF92FF920F931F93CF93DF93B82E0E9425
:1009100021026B017C0101E912E0C3EDD2E06DE23E
:1009200071E0888199810E947B044B2D50E060E04A
:1009300070E02AE0888199810E94DC0364E371E021
:10094000888199810E947B042AE0B701A6018881F1
:1009500099810E94DC0366E371E0888199810E949D
:100960007B04F80186819781A085B185B701A60136
:10097000481B590B6A0B7B0B2AE0888199810E94E6
:10098000DC0366E371E0888199810E947B04F801B1
:10099000468157816085718582859385A485B5855B
:1009A000481B590B6A0B7B0B2AE088819981DF91E8
:1009B000CF911F910F91FF90EF90DF90CF90BF905C
:1009C0000C94DC038F929F92AF92BF92CF92DF92F2
:1009D000EF92FF920F931F93CF93DF938C01DC0173
:1009E0001296ED91FC911397C085D18584EF91E02B
:1009F000A0E0B0E080939F029093A002A093A10298
:100A0000B093A2021092A3021092A4021092A50227
:100A10001092A6028091970290919802A09199025B
:100A2000B0919A0280939B0290939C02A0939D02A6
:100A3000B0939E020E9421026093970270939802E5
:100A40008093990290939A0280E00E945402882336
:100A500029F184E00E947D0468E371E08091D30273
:100A60009091D4020E947B046B8970E08091D30244
:100A70009091D4020E94250468E371E08091D30232
:100A80009091D4020E947B046D8970E08091D30222
:100A90009091D4020E9425040E94730462E070E0E9
:100AA00080E090E00E942D020E9421026093970254
:100AB000709398028093990290939A028B8988236D
:100AC00009F4D7C00E94FC01AB01BC014093B60100
:100AD0005093B7016093B8017093B9014093B2018C
:100AE0005093B3016093B4017093B5012AE080ED97
:100AF00091E00E94DC0369E471E080ED91E00E94E6
:100B0000C7038091B0019091B101009729F081371E
:100B1000910509F483C0A9C08B89882309F4A5C075
:100B20006B857C858D859E85611571058105910597
:100B300009F49BC028E631E040E050E00E94D60A6C
:100B40002093AC013093AD014093AE015093AF01BF
:100B50000E94FC016093A8017093A9018093AA01EF
:100B60009093AB011092A4011092A5011092A601DE
:100B70001092A70126C00E94FC016C157D058E0510
:100B80009F0508F076C00E94FC016093A801709355
:100B9000A9018093AA019093AB014091A4015091C7
:100BA000A5016091A6017091A7014F5F5F4F6F4F44
:100BB0007F4F4093A4015093A5016093A6017093C9
:100BC000A701C090A401D090A501E090A601F090EB
:100BD000A701E8E6CE16E1E0DE06E104F10408F044
:100BE00044C060E084E00E94B001B5EBCB16D104B4
:100BF000E104F10490F188E10E94C60286E10E94BE
:100C0000C60283E00E94C60261E084E00E94B00157
:100C100081E790E09093B1018093B0010E94FC01C4
:100C2000C090A801D090A901E090AA01F090AB017A
:100C3000DC01CB018C199D09AE09BF098090AC0184
:100C40009090AD01A090AE01B090AF0188159905CC
:100C5000AA05BB0508F097CF8ECF80E00E94C602A0
:100C600080E00E94C60280E0CDCF1092B1011092C8
:100C7000B0018D898823A9F060E070E0D801129658
:100C80008D919C911397DF91CF911F910F91FF90C0
:100C9000EF90DF90CF90BF90AF909F908F900C948B
:100CA0008902DF91CF911F910F91FF90EF90DF901C
:100CB000CF90BF90AF909F908F9008951F920F920A
:100CC0000FB60F9211242F933F934F935F936F931F
:100CD0007F938F939F93AF93BF93EF93FF9380ED99
:100CE00091E00E941C01FF91EF91BF91AF919F9104
:100CF0008F917F916F915F914F913F912F910F90C5
:100D00000FBE0F901F9018951F920F920FB60F9263
:100D100011242F938F939F93EF93FF93E091E00122
:100D2000F091E1018081E091E601F091E70182FD1F
:100D300012C090818091E9018F5F8F732091EA0149
:100D4000821751F0E091E901F0E0E053FE4F958FFA
:100D50008093E90101C08081FF91EF919F918F9174
:100D60002F910F900FBE0F901F9018951F920F920A
:100D70000FB60F9211242F933F938F939F93AF93AE
:100D8000BF938091BB019091BC01A091BD01B09136
:100D9000BE013091BA0126E0230F2D3720F40296D0
:100DA000A11DB11D05C029E8230F0396A11DB11D8A
:100DB0002093BA018093BB019093BC01A093BD0125
:100DC000B093BE018091BF019091C001A091C1017B
:100DD000B091C2010196A11DB11D8093BF019093F6
:100DE000C001A093C101B093C201BF91AF919F9187
:100DF0008F913F912F910F900FBE0F901F901895DC
:100E00001F920F920FB60F9211242F938F939F93DF
:100E100083E480937C0080917A00806480937A00E0
:100E200080917A0086FDFCCF809178002091790036
:100E300090E0922B8130924024F081E080937F02F9
:100E400002C0109288029F918F912F910F900FBE38
:100E50000F901F901895E0EDF1E01382128288EE5A
:100E600093E0A0E0B0E084839583A683B78384E019
:100E700091E09183808385EC90E09587848784EC72
:100E800090E09787868780EC90E0918B808B81EC57
:100E900090E0938B828B82EC90E0958B848B86EC38
:100EA00090E0978B868B118E128E138E148E80E2BB
:100EB00091E0909372028093710286E191E09093A9
:100EC0006E0280936D02E5E7F2E0128613861486C7
:100ED000158616861786108A118A128A148A158A30
:100EE000E1E9F2E0168217821086118612861386D7
:100EF0001486158616861786108A118A128A138A16
:100F0000148A158A0895789484B5826084BD84B566
:100F1000816084BD85B5826085BD85B5816085BDF4
:100F200080916E00816080936E00109281008091AC
:100F30008100826080938100809181008160809334
:100F40008100809180008160809380008091B10059
:100F500084608093B1008091B00081608093B00084
:100F600080917A00846080937A0080917A00826018
:100F700080937A0080917A008E7F80937A008091AE
:100F80007A00806880937A001092C1001092D50296
:100F90001092D6021092D7021092D80210929302A9
:100FA00010929402109295021092960268EB7BE0E8
:100FB00080E090E00E942D0280ED91E09093D402B9
:100FC0008093D302E091E001F091E101D2E0D0837F
:100FD000E091DC01F091DD011082E091DE01F09101
:100FE000DF0188E080831092E801E091E401F09154
:100FF000E501C6E0C083E091E201F091E301808168
:1010000080618083E091E201F091E301808188605A
:101010008083E091E201F091E30180818068808328
:10102000E091E201F091E30180818F7D80830E9455
:10103000210260939302709394028093950290939F
:1010400096026AE371E08091D3029091D4020E94EB
:101050007B046AE070E080E090E00E942D0281E075
:101060008093A702E091E001F091E101D083E0914B
:10107000DC01F091DD011082E091DE01F091DF01F1
:1010800087E680831092E801E091E401F091E501A8
:10109000C083E091E201F091E3018081806180836F
:1010A000E091E201F091E301808188608083E0912A
:1010B000E201F091E301808180688083E091E201A8
:1010C000F091E30180818F7D80836CE471E080ED9D
:1010D00091E00E945F0463E671E080ED91E00E9480
:1010E0005F046BE771E080ED91E00E945F04C5E76B
:1010F000D2E0D0937E02C0937D0210927A021092C9
:10110000790281E090E090937C0280937B02D093FF
:101110007402C0937302D0937002C0936F0281E790
:1011200092E090937602809375028DE692E0909320
:10113000780280937702E0917102F091720201903F
:10114000F081E02D81E792E0099580916C00886044
:1011500080936C00D99A80916800826080936800C7
:10116000D0938C02C0938B0284E00E94870086E0BB
:101170000E948700CFB7F8948091C301811124C0E9
:10118000EAE9F0E08491EEEAF0E09491E82FF0E0F3
:10119000EE0FFF1FEA57FF4FA591B491EC91E923A1
:1011A00021F461E08AE00E94B0018AE00E94870099
:1011B0008CB580618CBD8CB580648CBD8DE00E9447
:1011C00087008BE00E9487008091C3018F5F80932E
:1011D000C301CFBF8BE892E00E94CD0294EFC92EED
:1011E000DD24D394E12CF12C0E942102672B682B83
:1011F000692B41F40E94210262307105810591053D
:1012000008F499C00E9421026093CC017093CD0133
:101210008093CE019093CF010091C8011091C90134
:101220002091CA013091CB016017710782079307A3
:1012300040F46093C8017093C9018093CA019093F0
:10124000CB010091C8011091C9012091CA013091D0
:10125000CB014B015C01801A910AA20AB30A9501E5
:1012600084010A3F11052105310508F464C060932B
:10127000C8017093C9018093CA019093CB01C092B9
:101280009F02D092A002E092A102F092A2021092DC
:10129000A3021092A4021092A5021092A6028091BD
:1012A000970290919802A0919902B0919A0280932E
:1012B0009B0290939C02A0939D02B0939E020E9479
:1012C0002102609397027093980280939902909301
:1012D0009A020E9421026093930270939402809379
:1012E00095029093960281E00E947D0468E371E08C
:1012F0008091D3029091D4020E947B040E9421022B
:10130000AB01BC012AE08091D3029091D4020E94EB
:10131000DC030E94730462E070E080E090E00E94D1
:101320002D020E942102609397027093980280938D
:10133000990290939A020E94FC016093C4017093F9
:10134000C5018093C6019093C701C0929F02D092BD
:10135000A002E092A102F092A2021092A3021092C7
:10136000A4021092A5021092A60280919702909179
:101370009802A0919902B0919A0280939B02909357
:101380009C02A0939D02B0939E020E942102609352
:101390009702709398028093990290939A0280E04A
:1013A0000E945402882339F183E00E947D0468E39F
:1013B00071E08091D3029091D4020E947B046091ED
:1013C000880270E08091D3029091D4020E9425049B
:1013D00068E371E08091D3029091D4020E947B0473
:1013E00060918A0270E08091D3029091D4020E94B1
:1013F00025040E94730462E070E080E090E00E94A7
:101400002D020E94210260939702709398028093AC
:10141000990290939A0280917F02882309F43FC039
:101420000E94FC01009184021091850220918602A5
:10143000309187020115110521053105B9F04B01E5
:101440005C01801A910AA20AB30A40E8841644E8B3
:1014500094064EE1A406B10448F480928002909272
:101460008102A0928202B092830208C01092800290
:1014700010928102109282021092830221E0209346
:1014800089022093880210928A02609384027093EA
:101490008502809386029093870210927F020E94B9
:1014A000FC01009184021091850220918602309106
:1014B0008702DC01CB01801B910BA20BB30B81389F
:1014C0009448AE41B10530F081E080938A021092D9
:1014D000880202C010928A02E0917902F0917A02A9
:1014E000EE0FFF1FEB58FD4F80819181DC01ED91E4
:1014F000FC910280F381E02D0995C0929F02D09269
:10150000A002E092A102F092A2021092A302109215
:10151000A4021092A5021092A602809197029091C7
:101520009802A0919902B0919A0280939B029093A5
:101530009C02A0939D02B0939E020E9421026093A0
:101540009702709398028093990290939A0280E098
:101550000E9454028823B9F082E00E947D0468E36F
:1015600071E08091D3029091D4020E947B0460913B
:10157000790270917A028091D3029091D4020E94F4
:1015800025040E94730462E070E080E090E00E9415
:101590002D020E942102609397027093980280931B
:1015A000990290939A020E94A6011ECEA1E21A2EE1
:1015B000AA1BBB1BFD010DC0AA1FBB1FEE1FFF1FF7
:1015C000A217B307E407F50720F0A21BB30BE40B47
:1015D000F50B661F771F881F991F1A9469F760958E
:1015E0007095809590959B01AC01BD01CF01089548
:1015F000EE0FFF1F0590F491E02D099481E090E03B
:0A160000F8940C94030BF894FFCF4C
:10160A00000000003D01A600D50084010601E400A7
:10161A00F80000000000BC02E204E602000000003C
:10162A00C102FA02F0025F564D44504500564D443D
:10163A0050455F003A323A007C00564D4450565F9E
:10164A00317C315F564D4450560D0A005370696E15
:10165A006E65722070726F746F747970652076305F
:10166A002E320043726561746564206279204A6192
:10167A00736F6E204D6F72616E6F007370696E6E5C
:10168A006572406A61736F6E2D6D6F72616E6F2E37
:04169A00636F6D000D
:00000001FF
