:100000000C945D000C9485000C9485000C94850084
:100010000C9427050C9485000C9485000C948500A5
:100020000C9485000C9485000C9485000C9485003C
:100030000C9485000C9485000C9485000C9485002C
:100040000C94DD040C9485000C94AB040C94850492
:100050000C9485000C9485000C9485000C9485000C
:100060000C9485000C94850000000008000201003B
:100070000003040700000000000000000000000072
:10008000250028002B0000000000240027002A0083
:10009000040404040404040402020202020203032E
:1000A0000303030301020408102040800102040836
:1000B0001020010204081020520511241FBECFEFAA
:1000C000D8E0DEBFCDBF11E0A0E0B1E0E2E2FEE0AB
:1000D00002C005900D92A237B107D9F722E0A2E73E
:1000E000B1E001C01D92AB35B207E1F710E0CDE5FC
:1000F000D0E004C02197FE010E940407CC35D1074F
:10010000C9F70E9498050C940F070C94000090E02A
:10011000FC01EC55FF4F2491FC01E057FF4F849107
:10012000882399F090E0880F991FFC01EA57FF4F50
:10013000A591B491FC01E458FF4F859194918FB73C
:10014000F894EC91E22BEC938FBF0895CF92DF925D
:10015000EF92FF920F931F93CF93DF936C017A017D
:100160008B01C0E0D0E0CE15DF0589F0D8016D919C
:100170008D01D601ED91FC910190F081E02DC60139
:100180000995892B11F47E0102C02196ECCFC7019D
:10019000DF91CF911F910F91FF90EF90DF90CF9063
:1001A0000895089580E090E00895FC01538D448DFA
:1001B000252F30E0842F90E0821B930B541710F012
:1001C000CF96089501970895FC01918D828D98171F
:1001D00061F0828DDF01A80FB11D5D968C91928D2B
:1001E0009F5F9F73928F90E008958FEF9FEF089528
:1001F000FC01918D828D981731F0828DE80FF11DF1
:10020000858D90E008958FEF9FEF0895FC01918D0B
:10021000228D892F90E0805C9F4F821B91098F7304
:10022000992708958AE991E00E94060121E0892B2F
:1002300009F420E0822F0895FC01848DDF01A80FCE
:10024000B11DA35ABF4F2C91848D90E001968F73FE
:100250009927848FA689B7892C93A089B1898C911D
:1002600080648C93938D848D981306C00288F389E3
:10027000E02D80818F7D80830895EF92FF920F9310
:100280001F93CF93DF93EC0181E0888F9B8D8C8D42
:10029000981305C0E889F989808185FD24C0F62E70
:1002A0000B8D10E00F5F1F4F0F731127E02E8C8D09
:1002B000E8120CC00FB607FCFACFE889F9898081F3
:1002C00085FFF5CFCE010E941C01F1CF8B8DFE0181
:1002D000E80FF11DE35AFF4FF0820B8FEA89FB898B
:1002E0008081806207C0EE89FF896083E889F9898F
:1002F00080818064808381E090E0DF91CF911F91C5
:100300000F91FF90EF900895CF93DF93EC01888DCC
:100310008823C9F0EA89FB89808185FD05C0A88909
:10032000B9898C9186FD0FC00FB607FCF5CF80818F
:1003300085FFF2CFA889B9898C9185FFEDCFCE01D9
:100340000E941C01E7CFDF91CF91089580E090E0FB
:10035000892B29F00E94120181110C94000008954C
:1003600090E0FC01E859FF4F3491FC01EC55FF4F40
:100370002491FC01E057FF4FE491EE2309F43BC0C8
:10038000332339F1333091F038F43130A9F0323081
:1003900001F584B58F7D12C0373091F03830A1F06F
:1003A0003430B9F4809180008F7D03C0809180004B
:1003B0008F77809380000DC084B58F7784BD09C08E
:1003C0008091B0008F7703C08091B0008F7D8093C3
:1003D000B000F0E0EE0FFF1FE458FF4FA591B4917D
:1003E0008FB7F894EC91611103C020952E2301C0C2
:1003F0002E2B2C938FBF08953FB7F89480919501D1
:1004000090919601A0919701B091980126B5A89B73
:1004100005C02F3F19F00196A11DB11D3FBFBA2F96
:10042000A92F982F8827820F911DA11DB11DBC01F6
:10043000CD0143E0660F771F881F991F4A95D1F7BA
:1004400008950F931F93CF93DF938C01EB01DC0191
:100450001496ED91FC911597EE0FFF1FE00FF11F21
:1004600080819181DC01ED91FC910480F581E02D8A
:100470000995F8018481958197838683D583C48308
:10048000CC0FDD1FC00FD11F88819981DC01ED9158
:10049000FC910190F081E02DDF91CF911F910F91A0
:1004A000099408950895089510928F0110928E0175
:1004B0000895109281011092800108958EBD000070
:1004C0000DB407FEFDCF8EB5089560E086E00E9472
:1004D000B00161E086E00E94B00160E084E00E942B
:1004E000B00180E00E945E0280E00E945E0280E037
:1004F0000E945E0261E084E00C94B001DC0112967F
:10050000ED91FC9113978085918546960C94650238
:10051000DC011296ED91FC911397808591854696AA
:100520000C9465028F929F92AF92BF92CF92DF920E
:10053000EF92FF920F931F93CF93DF938C01DC0117
:100540001296ED91FC911397C085D1858B898823F4
:1005500009F4C7C080918E0190918F01009729F016
:100560008934910509F47EC0B8C04B855C856D85E2
:100570007E85411551056105710509F4AEC08C8970
:1005800081111C8A452F562F672F772740938A01A8
:1005900050938B0160938C0170938D010E94FC013C
:1005A00060938601709387018093880190938901FD
:1005B00010928201109283011092840110928501A1
:1005C00021C08C89882309F46CC00E94FC016093CF
:1005D00086017093870180938801909389018091AF
:1005E000820190918301A0918401B09185010196CF
:1005F000A11DB11D8093820190938301A09384017A
:10060000B0938501C0908201D0908301E090840175
:10061000F0908501EFEFCE16D104E104F10411F062
:1006200008F057C08C89811158C060E084E00E94B6
:10063000B001B0E8CB16D104E104F104D0F588E1B3
:100640000E945E0286E10E945E0283E00E945E02DA
:1006500061E084E00E94B00189E490E090938F0112
:1006600080938E010E94FC01C0908601D09087018A
:10067000E0908801F0908901DC01CB018C199D0983
:10068000AE09BF0980908A0190908B01A0908C01E7
:10069000B0908D0188159905AA05BB0508F095CF86
:1006A00090CF0E94FC016C157D058E059F05C8F456
:1006B0008CCF60E086E00E94B00161E086E00E949D
:1006C000B00180E00E945E0280E00E945E0280E055
:1006D000BDCF1B861C861D861E8610928F01109230
:1006E0008E018D898823A9F060E070E0D801129610
:1006F0008D919C911397DF91CF911F910F91FF9056
:10070000EF90DF90CF90BF90AF909F908F900C9420
:100710002102DF91CF911F910F91FF90EF90DF9019
:10072000CF90BF90AF909F908F9008958F929F929F
:10073000AF92BF92CF92DF92EF92FF920F931F93EF
:10074000CF93DF93EC01EA81FB81008511858091D5
:10075000800190918101009721F0899709F46AC086
:1007600088C080E990EDA3E0B0E080937C01909395
:100770007D01A0937E01B0937F010E94FC016093F4
:1007800078017093790180937A0190937B011092A4
:100790007701109276011BC00E94FC016C157D054B
:1007A0008E059F0508F069C00E94FC0160937801E6
:1007B0007093790180937A0190937B018091760107
:1007C00090917701019690937701809376018091C3
:1007D0007601909177018E3F9105C8F660E084E044
:1007E0000E94B001C0907201D0907301E09074013A
:1007F000F09075018C2D0E945E0280E00E945E02E6
:1008000080E00E945E0261E084E00E94B0018FEF10
:10081000C81AD80AE80AF80AC0927201D092730185
:10082000E0927401F092750189E290E09093810169
:10083000809380010E94FC01C0907801D0907901E2
:10084000E0907A01F0907B01DC01CB018C199D09CD
:10085000AE09BF0980907C0190907D01A0907E013F
:10086000B0907F0188159905AA05BB0508F09CCFBB
:1008700093CF1092810110928001F801838988231F
:1008800099F08A819B81FC0166817781DF91CF910C
:100890001F910F91FF90EF90DF90CF90BF90AF909E
:1008A0009F908F900C942102DF91CF911F910F9117
:1008B000FF90EF90DF90CF90BF90AF909F908F9080
:1008C0000895CF93DF93009779F0FC010190002009
:1008D000E9F73197AF01481B590BBC018AE991E058
:1008E0000E94A600EC0102C0C0E0D0E042E050E06F
:1008F00066E271E08AE991E00E94A6008C0F9D1FDC
:10090000DF91CF9108950E940A071F920F920FB6B0
:100910000F9211242F933F934F935F936F937F9385
:100920008F939F93AF93BF93EF93FF938AE991E0E7
:100930000E941C01FF91EF91BF91AF919F918F9108
:100940007F916F915F914F913F912F910F900FBECB
:100950000F901F9018951F920F920FB60F921124AF
:100960002F938F939F93EF93FF93E091AA01F091C0
:10097000AB018081E091B001F091B10182FD12C024
:1009800090818091B3018F5F8F732091B4018217A2
:1009900051F0E091B301F0E0E656FE4F958F809361
:1009A000B30101C08081FF91EF919F918F912F91B1
:1009B0000F900FBE0F901F9018951F920F920FB6B9
:1009C0000F9211242F933F938F939F93AF93BF93D5
:1009D0008091910190919201A0919301B091940125
:1009E0003091900126E0230F2D3720F40296A11DAF
:1009F000B11D05C029E8230F0396A11DB11D209349
:100A000090018093910190939201A0939301B093F0
:100A100094018091950190919601A0919701B091D8
:100A200098010196A11DB11D8093950190939601A7
:100A3000A0939701B0939801BF91AF919F918F912F
:100A40003F912F910F900FBE0F901F9018951F92FE
:100A50000F920FB60F9211242F938F939F9383E4DD
:100A600080937C0080917A00806480937A008091EA
:100A70007A0086FDFCCF809178002091790090E08B
:100A8000922B8130924024F081E08093490202C091
:100A9000109252029F918F912F910F900FBE0F9045
:100AA0001F901895EAE9F1E01382128288EE93E034
:100AB000A0E0B0E084839583A683B78384E091E0CF
:100AC0009183808385EC90E09587848784EC90E027
:100AD0009787868780EC90E0918B808B81EC90E00B
:100AE000938B828B82EC90E0958B848B86EC90E0EC
:100AF000978B868B118E128E138E148E80E291E06E
:100B000090933C0280933B0286E191E090933802FF
:100B100080933702EFE3F2E012861386148615867F
:100B200016861786108A118A128A148A158A0895E1
:100B3000789484B5826084BD84B5816084BD85B5B8
:100B4000826085BD85B5816085BD80916E008160C4
:100B500080936E001092810080918100826080936A
:100B6000810080918100816080938100809180006C
:100B70008160809380008091B10084608093B10097
:100B80008091B00081608093B00080917A00846091
:100B900080937A0080917A00826080937A008091BD
:100BA0007A008E7F80937A0080917A0080688093AB
:100BB0007A001092C100E091AA01F091AB0182E0AD
:100BC0008083E091A601F091A7011082E091A80135
:100BD000F091A90187E680831092B201E091AE0105
:100BE000F091AF0186E08083E091AC01F091AD011E
:100BF000808180618083E091AC01F091AD018081C2
:100C000088608083E091AC01F091AD0180818068C3
:100C10008083E091AC01F091AD0180818F7D808374
:100C200089E291E00E94610480E491E00E94610405
:100C300088E591E00E946104CFE3D2E0D0934802BE
:100C4000C0934702109244021092430281E090E068
:100C50009093460280934502D0933E02C0933D029A
:100C6000D0933A02C09339028BE392E09093400212
:100C700080933F0287E392E0909342028093410287
:100C8000E0913B02F0913C020190F081E02D8BE37A
:100C900092E0099580916C00886080936C00D99AED
:100CA00080916800826080936800D0935602C09360
:100CB000550284E00E94870086E00E948700CFB73B
:100CC000F89480919901811124C0EAE9F0E08491BF
:100CD000EEEAF0E09491E82FF0E0EE0FFF1FEA5704
:100CE000FF4FA591B491EC91E92321F461E08AE0F2
:100CF0000E94B0018AE00E9487008CB580618CBDA3
:100D00008CB580648CBD8DE00E9487008BE00E94D2
:100D10008700809199018F5F80939901CFBF85E50E
:100D200092E00E946502C1E0809149028823F1F1BE
:100D30000E94FC0100914E0210914F02209150023E
:100D4000309151020115110521053105B9F06B01F2
:100D50007C01C01AD10AE20AF30A40E8C41644E84A
:100D6000D4064EE1E406F10448F4C0924A02D0925F
:100D70004B02E0924C02F0924D0208C010924A02DF
:100D800010924B0210924C0210924D02C0935302EB
:100D9000C09352021092540260934E0270934F021D
:100DA0008093500290935102109249020E94FC01DC
:100DB00000914E0210914F02209150023091510249
:100DC000DC01CB01801B910BA20BB30B8138944843
:100DD000AE41B10528F0C09354021092520202C0F5
:100DE00010925402E0914302F0914402EE0FFF1F73
:100DF000E15CFD4F80819181DC01ED91FC910280ED
:100E0000F381E02D099590CFEE0FFF1F0590F4912F
:100E1000E02D099481E090E0F8940C940F07F89489
:020E2000FFCF02
:100E2200000000003D01A600D50084010601E40097
:100E3200F80000000000540292027E02000000004E
:100E42005902960388020D0A005370696E6E65722C
:100E52002070726F746F747970652076302E320054
:100E620043726561746564206279204A61736F6EB2
:100E7200204D6F72616E6F007370696E6E657240A5
:100E82006A61736F6E2D6D6F72616E6F2E636F6D1F
:020E920000005E
:00000001FF
